:040000008A11112828
:10000800FE00030EF6000408F7000A08F800831241
:1000180003137F08F9008A113F298A1113288301E5
:100028008A111628831203179F019E018316031352
:1000380085018601870106130616871307118710A5
:100048000C3083120313920094124030831603136A
:100058009400033083120313940094168316031339
:100068000515161583120313071587100030A6000F
:100078000030A7008A11B8208A1183120313AC003C
:100088002C08AD002D088A1152218A1100308312E4
:1000980003133B288312031387143230A000003067
:1000A800A1008A11EB208A118312031387103230C2
:1000B800A0000030A1008A11EB208A1183120313DB
:1000C80087143230A0000030A1008A11EB208A1179
:1000D8008312031387103230A0000030A1008A1168
:1000E800EB208A118312031387143230A0000030EA
:1000F800A1008A11EB2083120313871008008312D2
:10010800031387143230F0000030F1008A111721F0
:100118008A118312031387103230F0000030F10087
:100128008A1117218A118312031387143230F000C1
:100138000030F1008A1117218A11831203138710E6
:100148003230F0000030F1008A1117218A11831231
:10015800031387143230F0000030F1008A111721A0
:100168008312031387100800831203132708A800BB
:100178002808AA002608A8002808AB0007110130A3
:10018800A0000030A1008A11EB208A11831203130A
:100198002A08930083160313141CCE288312031312
:1001A8001308A8002808A9002B0893008316031336
:1001B800141CDA28013083120313A0000030A100B8
:1001C8008A11EB20831203130715290808008312EC
:1001D8000313A201A30121082302031DF528200807
:1001E800220203180800A401A501003025024130AD
:1001F8000319240203181029000001308312031385
:10020800A4070318A50A0030A507003025024130CD
:1002180003192402031C00290130A2070318A30AAA
:100228000030A307EF28F201F30171087302031DE0
:100238001F297008720203180800F401F501003044
:10024800750241300319740203183829000001307F
:10025800F4070318F50A0030F5070030750241303D
:1002680003197402031C2A290130F2070318F30A40
:100278000030F30719290B1C45298A1183208A119C
:100288000B10790883120313FF0078088A00770897
:100298008400760E8300FE0E7E0E0900831203137F
:1002A800A6002608031908008A114E20831203139A
:0202B80008003C
:02400E00F7FFBA
:00000001FF
