:040000008A11112828
:10000800FE00030E83120313A5000408A6000A08C5
:10001800A7007F08A8008A110D298A111328D0018A
:10002800D101D201D301D401D501D601D70183135F
:100038005030FD000230FE007130FF004030840077
:100048008A11852283018A112928831203179F01A7
:100058009E018316031306130616871307118710CC
:10006800071083120313941240308316031394006D
:100078000230831203139400941683160313141486
:10008800051516158B1501138B1783120313071506
:1000980007108710D830B3008030B4008A1163216C
:1000A8008A11D83083120313B3008230B4008A1146
:1000B80063218A11403083120313B300A630B400C1
:1000C8008A1163218A11A03083120313B300C6304A
:1000D800B4008A1163218A11C03083120313B3005C
:1000E8009430B4008A1163218A11AC30831203134F
:1000F800B300C230B4008A1163218A1176308312AA
:100108000313B300CC30B4008A1163218A11833001
:1001180083120313B300CA30B4008A1163218A1111
:10012800D43083120313B300CE30B4008A11632194
:100138008A11873083120313B300C430B4008A11C4
:1001480063218A11203083120313B3009830B4005E
:100158008A1163218A11003083120313B300E0303F
:10016800B4008A1163218A11003083120313B3008B
:10017800C830B4008A1163218A1100308312031336
:10018800B300C030B4008A1163218A110030831291
:100198000313B3000030B4008A1163218A1183125B
:1001A80003133308BD003D08BE003E088A11ED2147
:1001B8008A1183120313871456088A11ED218A11B4
:1001C800BC3083120313AD000230AE008A111D2229
:1001D8008A11831203138710BF0106303F020318E8
:1001E800DD283F08503E8400831300088A11ED2162
:1001F8008A11BC3083120313AD000230AE008A119D
:100208001D228A11013083120313BD003D08BF0768
:10021800F1280B1C56290030F6000030F7008A112F
:10022800A8218A11770883120313AA01AA0776085E
:10023800A901A907AA1F55290030F600B030F70018
:100248008A11A8218A11FF30760583120313AB00A7
:1002580000307705AC00D7080319D6010130A40097
:100268002408D6072B08A4005708503E8400240809
:10027800831380000130A4002408D7075708063AE2
:10028800031D5529D7018130F600CA30F7008A11BD
:10029800A8218A118330F600CA30F7008A11A821F4
:1002A8008A110B10831203132808FF0027088A00FD
:1002B80026088400250E8300FE0E7E0E0900831298
:1002C80003133408B5003508BB003308B5003508FA
:1002D800BC0007110130AD000030AE008A111D22AC
:1002E8008A11831203133B08930083160313141C0B
:1002F8007929831203131308B5003508B9003C089F
:10030800930083160313141C8529831203131308FF
:10031800B5003508BA000130AD000030AE008A11D2
:100328001D228312031307153A08B500B6013908D0
:10033800B700B8013708B800B70135083704B3006B
:1003480036083804B40008007708F80078088312E3
:100358000313A2007608F8007808A30007110130FB
:10036800F0000030F1008A1149228A118312031328
:100378002208930083160313141CBE298312031347
:100388001308F8007808A0002308930083160313C5
:10039800141CCA29831203131308F8007808A10053
:1003A8000130F0000030F1008A1149228312031352
:1003B80007152108F800F9012008FA00FB017A085E
:1003C800FB00FA0178087A04F60079087B04F70044
:1003D800080083120313B1003108AD000430031084
:1003E800AD0CFF3E031DF3292D080F39AE002E0872
:1003F800AF0031080F39AD002D08B00007143008E0
:10040800403E840083130008930083160313141CD2
:10041800092A831203132F08403E8400831300081F
:10042800930083160313141C152A83120313071051
:10043800080083120313AF01B0012E083002031D18
:10044800272A2D082F0203180800B101B201003035
:1004580032024130031931020318422A00000130E8
:1004680083120313B1070318B20A0030B207003031
:100478003202413003193102031C322A0130AF071E
:100488000318B00A0030B007212AF201F3017108FD
:100498007302031D512A7008720203180800F40140
:1004A800F5010030750241300319740203186A2AF5
:1004B80000000130F4070318F50A0030F507003092
:1004C8007502413003197402031C5C2A0130F207DB
:1004D8000318F30A0030F3074B2ACF340C34AB343B
:1004E800AE346C34E634E734CC34EF34EE34ED34E7
:1004F800673423342F34E334E1347E088A007F08DC
:10050800820081228A118000840A04087D0603196A
:0A0518000034FF0A0319FE0A852AC9
:02400E00F7FFBA
:00000001FF
