:040000008A11FD2F35
:100E34007308F4007408F6007208F4007408F700EC
:100E44008312031307138C1D252F760893008C1D22
:100E5400292F1308F4007408F500770893008C1DFB
:100E6400312F1308F4007408F50007178A11762748
:100E74000800F3000830F0007008F4000130F402B8
:100E84007408FF3A0319682F83120313871005307F
:100E9400F2000F30F100F430F000F00B4F2FF10BA3
:100EA4004F2FF20B4F2F731C5A2F831203138714E7
:100EB4000230F2000430F100BA30F000F00B602F81
:100EC400F10B602FF20B602F0000402F0630F20070
:100ED4001330F100B130F000F00B6E2FF10B6E2FD8
:100EE400F20B6E2F752F0800831203138714413001
:100EF400F100EE30F000F00B7D2FF10B7D2F0000A0
:100F04008312031387104130F100EE30F000F00B30
:100F1400892FF10B892F00008312031387144130AA
:100F2400F100EE30F000F00B952FF10B952F00003F
:100F34008312031387104130F100EE30F000F00B00
:100F4400A12FF10BA12F000083120313871441304A
:100F5400F100EE30F000F00BAD2FF10BAD2F0000DF
:100F64008312031387100800831603138501860177
:100F740087010613061287170713831203139412AB
:100F84004030831603139400223083120313940019
:100F94009416831203179E01D830F2008030F300B8
:100FA4008A111A278A110830F2008230F3008A115C
:100FB4001A278A114030F200A630F3008A111A274A
:100FC4008A114730F200C630F3008A111A278A11B9
:100FD4007730F200CC30F3008A111A278A11D83006
:100FE400F2008030F3008A111A278A1178088A11D6
:0C0FF4003B278A11F12F83018A11B62FD0
:02400E00F7FFBA
:00000001FF
